{
  "contractName": "LOTM_MarketPlace",
  "abi": [
    {
      "anonymous": false,
      "inputs": [
        {
          "indexed": true,
          "internalType": "address",
          "name": "token",
          "type": "address"
        },
        {
          "indexed": true,
          "internalType": "uint256",
          "name": "id",
          "type": "uint256"
        },
        {
          "indexed": true,
          "internalType": "uint256",
          "name": "bidAmount",
          "type": "uint256"
        },
        {
          "indexed": false,
          "internalType": "address",
          "name": "buyer",
          "type": "address"
        },
        {
          "indexed": false,
          "internalType": "uint256",
          "name": "timestamp",
          "type": "uint256"
        }
      ],
      "name": "BuyOfferCancelled",
      "type": "event"
    },
    {
      "anonymous": false,
      "inputs": [
        {
          "indexed": true,
          "internalType": "address",
          "name": "oldOwner",
          "type": "address"
        },
        {
          "indexed": true,
          "internalType": "address",
          "name": "newOwner",
          "type": "address"
        },
        {
          "indexed": true,
          "internalType": "uint256",
          "name": "price",
          "type": "uint256"
        },
        {
          "indexed": false,
          "internalType": "address",
          "name": "collection",
          "type": "address"
        },
        {
          "indexed": false,
          "internalType": "uint256",
          "name": "tokenId",
          "type": "uint256"
        }
      ],
      "name": "NFTPurchased",
      "type": "event"
    },
    {
      "anonymous": false,
      "inputs": [
        {
          "indexed": true,
          "internalType": "address",
          "name": "token",
          "type": "address"
        },
        {
          "indexed": true,
          "internalType": "uint256",
          "name": "id",
          "type": "uint256"
        },
        {
          "indexed": true,
          "internalType": "uint256",
          "name": "bidAmount",
          "type": "uint256"
        },
        {
          "indexed": false,
          "internalType": "address",
          "name": "buyer",
          "type": "address"
        },
        {
          "indexed": false,
          "internalType": "uint256",
          "name": "timestamp",
          "type": "uint256"
        }
      ],
      "name": "NewBuyOffer",
      "type": "event"
    },
    {
      "anonymous": false,
      "inputs": [
        {
          "indexed": true,
          "internalType": "address",
          "name": "token",
          "type": "address"
        },
        {
          "indexed": true,
          "internalType": "uint256",
          "name": "id",
          "type": "uint256"
        },
        {
          "indexed": true,
          "internalType": "uint256",
          "name": "price",
          "type": "uint256"
        },
        {
          "indexed": false,
          "internalType": "address",
          "name": "seller",
          "type": "address"
        },
        {
          "indexed": false,
          "internalType": "uint256",
          "name": "timestamp",
          "type": "uint256"
        }
      ],
      "name": "NewSellOffer",
      "type": "event"
    },
    {
      "anonymous": false,
      "inputs": [
        {
          "indexed": true,
          "internalType": "address",
          "name": "previousOwner",
          "type": "address"
        },
        {
          "indexed": true,
          "internalType": "address",
          "name": "newOwner",
          "type": "address"
        }
      ],
      "name": "OwnershipTransferred",
      "type": "event"
    },
    {
      "anonymous": false,
      "inputs": [
        {
          "indexed": false,
          "internalType": "address",
          "name": "ca",
          "type": "address"
        },
        {
          "indexed": false,
          "internalType": "uint256",
          "name": "id",
          "type": "uint256"
        },
        {
          "indexed": false,
          "internalType": "uint256",
          "name": "timestamp",
          "type": "uint256"
        }
      ],
      "name": "SellOfferCanceled",
      "type": "event"
    },
    {
      "inputs": [],
      "name": "owner",
      "outputs": [
        {
          "internalType": "address",
          "name": "",
          "type": "address"
        }
      ],
      "stateMutability": "view",
      "type": "function",
      "constant": true
    },
    {
      "inputs": [],
      "name": "renounceOwnership",
      "outputs": [],
      "stateMutability": "nonpayable",
      "type": "function"
    },
    {
      "inputs": [
        {
          "internalType": "address",
          "name": "newOwner",
          "type": "address"
        }
      ],
      "name": "transferOwnership",
      "outputs": [],
      "stateMutability": "nonpayable",
      "type": "function"
    },
    {
      "stateMutability": "payable",
      "type": "receive",
      "payable": true
    },
    {
      "inputs": [
        {
          "internalType": "address",
          "name": "",
          "type": "address"
        },
        {
          "internalType": "address",
          "name": "",
          "type": "address"
        },
        {
          "internalType": "uint256",
          "name": "",
          "type": "uint256"
        },
        {
          "internalType": "bytes",
          "name": "",
          "type": "bytes"
        }
      ],
      "name": "onERC721Received",
      "outputs": [
        {
          "internalType": "bytes4",
          "name": "",
          "type": "bytes4"
        }
      ],
      "stateMutability": "nonpayable",
      "type": "function"
    },
    {
      "inputs": [
        {
          "internalType": "address",
          "name": "ca",
          "type": "address"
        },
        {
          "internalType": "uint256",
          "name": "tokenId",
          "type": "uint256"
        },
        {
          "internalType": "uint256",
          "name": "price",
          "type": "uint256"
        }
      ],
      "name": "createSellOffer",
      "outputs": [],
      "stateMutability": "nonpayable",
      "type": "function"
    },
    {
      "inputs": [
        {
          "internalType": "address",
          "name": "ca",
          "type": "address"
        },
        {
          "internalType": "uint256",
          "name": "tokenId",
          "type": "uint256"
        }
      ],
      "name": "cancelSellOffer",
      "outputs": [],
      "stateMutability": "nonpayable",
      "type": "function"
    },
    {
      "inputs": [
        {
          "internalType": "address",
          "name": "ca",
          "type": "address"
        },
        {
          "internalType": "uint256",
          "name": "tokenId",
          "type": "uint256"
        }
      ],
      "name": "purchaseNFT",
      "outputs": [],
      "stateMutability": "payable",
      "type": "function",
      "payable": true
    },
    {
      "inputs": [
        {
          "internalType": "address",
          "name": "ca",
          "type": "address"
        },
        {
          "internalType": "uint256",
          "name": "tokenId",
          "type": "uint256"
        },
        {
          "internalType": "uint256",
          "name": "bidAmount",
          "type": "uint256"
        }
      ],
      "name": "createBuyOffer",
      "outputs": [],
      "stateMutability": "payable",
      "type": "function",
      "payable": true
    },
    {
      "inputs": [
        {
          "internalType": "address",
          "name": "ca",
          "type": "address"
        },
        {
          "internalType": "uint256",
          "name": "tokenId",
          "type": "uint256"
        },
        {
          "internalType": "uint256",
          "name": "bidAmount",
          "type": "uint256"
        }
      ],
      "name": "cancelBuyOffer",
      "outputs": [],
      "stateMutability": "payable",
      "type": "function",
      "payable": true
    },
    {
      "inputs": [
        {
          "internalType": "address",
          "name": "ca",
          "type": "address"
        },
        {
          "internalType": "uint256",
          "name": "tokenId",
          "type": "uint256"
        },
        {
          "internalType": "uint256",
          "name": "bidAmount",
          "type": "uint256"
        },
        {
          "internalType": "address",
          "name": "buyer",
          "type": "address"
        }
      ],
      "name": "acceptBuyOffer",
      "outputs": [],
      "stateMutability": "payable",
      "type": "function",
      "payable": true
    },
    {
      "inputs": [
        {
          "internalType": "address",
          "name": "ca",
          "type": "address"
        },
        {
          "internalType": "uint256",
          "name": "tokenId",
          "type": "uint256"
        }
      ],
      "name": "getLastSellOffer",
      "outputs": [
        {
          "components": [
            {
              "internalType": "uint256",
              "name": "price",
              "type": "uint256"
            },
            {
              "internalType": "uint256",
              "name": "timestamp",
              "type": "uint256"
            },
            {
              "internalType": "uint256",
              "name": "tokenId",
              "type": "uint256"
            },
            {
              "internalType": "address",
              "name": "seller",
              "type": "address"
            },
            {
              "internalType": "bool",
              "name": "accepted",
              "type": "bool"
            }
          ],
          "internalType": "struct LOTM_MarketPlace.sellOffer",
          "name": "",
          "type": "tuple"
        }
      ],
      "stateMutability": "view",
      "type": "function",
      "constant": true
    },
    {
      "inputs": [
        {
          "internalType": "address",
          "name": "ca",
          "type": "address"
        },
        {
          "internalType": "uint256",
          "name": "tokenId",
          "type": "uint256"
        }
      ],
      "name": "isOnSale",
      "outputs": [
        {
          "internalType": "bool",
          "name": "",
          "type": "bool"
        }
      ],
      "stateMutability": "view",
      "type": "function",
      "constant": true
    },
    {
      "inputs": [
        {
          "internalType": "address",
          "name": "ca",
          "type": "address"
        },
        {
          "internalType": "uint256",
          "name": "tokenId",
          "type": "uint256"
        }
      ],
      "name": "getNFTPrice",
      "outputs": [
        {
          "internalType": "uint256",
          "name": "",
          "type": "uint256"
        }
      ],
      "stateMutability": "view",
      "type": "function",
      "constant": true
    },
    {
      "inputs": [
        {
          "internalType": "address",
          "name": "ca",
          "type": "address"
        },
        {
          "internalType": "uint256",
          "name": "tokenId",
          "type": "uint256"
        }
      ],
      "name": "getBuyOffers",
      "outputs": [
        {
          "components": [
            {
              "internalType": "uint256",
              "name": "bidAmount",
              "type": "uint256"
            },
            {
              "internalType": "uint256",
              "name": "timestamp",
              "type": "uint256"
            },
            {
              "internalType": "address",
              "name": "buyer",
              "type": "address"
            },
            {
              "internalType": "bool",
              "name": "accepted",
              "type": "bool"
            }
          ],
          "internalType": "struct LOTM_MarketPlace.Offer[]",
          "name": "",
          "type": "tuple[]"
        }
      ],
      "stateMutability": "view",
      "type": "function",
      "constant": true
    },
    {
      "inputs": [
        {
          "internalType": "address",
          "name": "ca",
          "type": "address"
        },
        {
          "internalType": "uint256",
          "name": "tokenId",
          "type": "uint256"
        }
      ],
      "name": "getSellOffers",
      "outputs": [
        {
          "components": [
            {
              "internalType": "uint256",
              "name": "price",
              "type": "uint256"
            },
            {
              "internalType": "uint256",
              "name": "timestamp",
              "type": "uint256"
            },
            {
              "internalType": "uint256",
              "name": "tokenId",
              "type": "uint256"
            },
            {
              "internalType": "address",
              "name": "seller",
              "type": "address"
            },
            {
              "internalType": "bool",
              "name": "accepted",
              "type": "bool"
            }
          ],
          "internalType": "struct LOTM_MarketPlace.sellOffer[]",
          "name": "",
          "type": "tuple[]"
        }
      ],
      "stateMutability": "view",
      "type": "function",
      "constant": true
    }
  ],
  "bytecode": "0x60806040523480156200001157600080fd5b5060016000819055506200003a6200002e6200004060201b60201c565b6200004860201b60201c565b6200010e565b600033905090565b6000600160009054906101000a900473ffffffffffffffffffffffffffffffffffffffff16905081600160006101000a81548173ffffffffffffffffffffffffffffffffffffffff021916908373ffffffffffffffffffffffffffffffffffffffff1602179055508173ffffffffffffffffffffffffffffffffffffffff168173ffffffffffffffffffffffffffffffffffffffff167f8be0079c531659141344cd1fd0a4f28419497f9722a3daafe3b4186f6b6457e060405160405180910390a35050565b613d41806200011e6000396000f3fe6080604052600436106100ec5760003560e01c8063a550e4b71161008a578063bc24179311610059578063bc241793146102e8578063c79a8ece14610325578063f2fde38b14610341578063f84390d31461036a576100f3565b8063a550e4b714610236578063a87e25ac14610273578063ad76d9ce1461028f578063aefa195d146102ab576100f3565b806372227c20116100c657806372227c20146101895780638da5cb5b146101a55780639917cc2f146101d0578063a17c38f81461020d576100f3565b8063150b7a02146100f85780636ac94a6214610135578063715018a614610172576100f3565b366100f357005b600080fd5b34801561010457600080fd5b5061011f600480360381019061011a9190612ce5565b610393565b60405161012c9190612da3565b60405180910390f35b34801561014157600080fd5b5061015c60048036038101906101579190612dbe565b6103a7565b6040516101699190612f4e565b60405180910390f35b34801561017e57600080fd5b506101876104e6565b005b6101a3600480360381019061019e9190612f70565b61056e565b005b3480156101b157600080fd5b506101ba610d21565b6040516101c79190612fe6565b60405180910390f35b3480156101dc57600080fd5b506101f760048036038101906101f29190612dbe565b610d4b565b6040516102049190613069565b60405180910390f35b34801561021957600080fd5b50610234600480360381019061022f9190612dbe565b610f0d565b005b34801561024257600080fd5b5061025d60048036038101906102589190612dbe565b6113e9565b60405161026a9190613093565b60405180910390f35b61028d60048036038101906102889190612dbe565b6114e3565b005b6102a960048036038101906102a491906130ae565b611abb565b005b3480156102b757600080fd5b506102d260048036038101906102cd9190612dbe565b611dcf565b6040516102df9190613205565b60405180910390f35b3480156102f457600080fd5b5061030f600480360381019061030a9190612dbe565b611f04565b60405161031c9190613236565b60405180910390f35b61033f600480360381019061033a91906130ae565b611fe6565b005b34801561034d57600080fd5b5061036860048036038101906103639190613251565b61247b565b005b34801561037657600080fd5b50610391600480360381019061038c91906130ae565b612573565b005b600063150b7a0260e01b9050949350505050565b6060600260008473ffffffffffffffffffffffffffffffffffffffff1673ffffffffffffffffffffffffffffffffffffffff1681526020019081526020016000206000838152602001908152602001600020805480602002602001604051908101604052809291908181526020016000905b828210156104da57838290600052602060002090600402016040518060a00160405290816000820154815260200160018201548152602001600282015481526020016003820160009054906101000a900473ffffffffffffffffffffffffffffffffffffffff1673ffffffffffffffffffffffffffffffffffffffff1673ffffffffffffffffffffffffffffffffffffffff1681526020016003820160149054906101000a900460ff16151515158152505081526020019060010190610419565b50505050905092915050565b6104ee612988565b73ffffffffffffffffffffffffffffffffffffffff1661050c610d21565b73ffffffffffffffffffffffffffffffffffffffff1614610562576040517f08c379a0000000000000000000000000000000000000000000000000000000008152600401610559906132db565b60405180910390fd5b61056c6000612990565b565b600260005414156105b4576040517f08c379a00000000000000000000000000000000000000000000000000000000081526004016105ab90613347565b60405180910390fd5b60026000819055508373ffffffffffffffffffffffffffffffffffffffff16636352211e846040518263ffffffff1660e01b81526004016105f59190613236565b602060405180830381865afa158015610612573d6000803e3d6000fd5b505050506040513d601f19601f82011682018060405250810190610636919061337c565b73ffffffffffffffffffffffffffffffffffffffff163373ffffffffffffffffffffffffffffffffffffffff16146106a3576040517f08c379a000000000000000000000000000000000000000000000000000000000815260040161069a9061341b565b60405180910390fd5b60006106af85856113e9565b905080610772578473ffffffffffffffffffffffffffffffffffffffff1663e985e9c533306040518363ffffffff1660e01b81526004016106f192919061343b565b602060405180830381865afa15801561070e573d6000803e3d6000fd5b505050506040513d601f19601f820116820180604052508101906107329190613490565b610771576040517f08c379a00000000000000000000000000000000000000000000000000000000081526004016107689061352f565b60405180910390fd5b5b600061077e8686612a56565b905060008060005b838054905081101561089957868482815481106107a6576107a561354f565b5b90600052602060002090600302016000015414801561083457508573ffffffffffffffffffffffffffffffffffffffff168482815481106107ea576107e961354f565b5b906000526020600020906003020160020160009054906101000a900473ffffffffffffffffffffffffffffffffffffffff1673ffffffffffffffffffffffffffffffffffffffff16145b80156108755750600015158482815481106108525761085161354f565b5b906000526020600020906003020160020160149054906101000a900460ff161515145b156108865760019250809150610899565b8080610891906135ad565b915050610786565b5060011515821515146108e1576040517f08c379a00000000000000000000000000000000000000000000000000000000081526004016108d890613642565b60405180910390fd5b8361095a578773ffffffffffffffffffffffffffffffffffffffff166323b872dd33878a6040518463ffffffff1660e01b815260040161092393929190613662565b600060405180830381600087803b15801561093d57600080fd5b505af1158015610951573d6000803e3d6000fd5b50505050610b0c565b8773ffffffffffffffffffffffffffffffffffffffff166323b872dd30878a6040518463ffffffff1660e01b815260040161099793929190613662565b600060405180830381600087803b1580156109b157600080fd5b505af11580156109c5573d6000803e3d6000fd5b50505050600260008973ffffffffffffffffffffffffffffffffffffffff1673ffffffffffffffffffffffffffffffffffffffff16815260200190815260200160002060008881526020019081526020016000206040518060a0016040528060008152602001428152602001898152602001600073ffffffffffffffffffffffffffffffffffffffff16815260200160001515815250908060018154018082558091505060019003906000526020600020906004020160009091909190915060008201518160000155602082015181600101556040820151816002015560608201518160030160006101000a81548173ffffffffffffffffffffffffffffffffffffffff021916908373ffffffffffffffffffffffffffffffffffffffff16021790555060808201518160030160146101000a81548160ff02191690831515021790555050505b3373ffffffffffffffffffffffffffffffffffffffff166108fc879081150290604051600060405180830381858888f19350505050158015610b52573d6000803e3d6000fd5b5085600460008773ffffffffffffffffffffffffffffffffffffffff1673ffffffffffffffffffffffffffffffffffffffff1681526020019081526020016000206000828254610ba29190613699565b9250508190555084600560008a73ffffffffffffffffffffffffffffffffffffffff1673ffffffffffffffffffffffffffffffffffffffff168152602001908152602001600020600089815260200190815260200160002060006101000a81548173ffffffffffffffffffffffffffffffffffffffff021916908373ffffffffffffffffffffffffffffffffffffffff160217905550828181548110610c4b57610c4a61354f565b5b906000526020600020906003020160008082016000905560018201600090556002820160006101000a81549073ffffffffffffffffffffffffffffffffffffffff02191690556002820160146101000a81549060ff02191690555050858573ffffffffffffffffffffffffffffffffffffffff163373ffffffffffffffffffffffffffffffffffffffff167ffc8abc7914dcccec0a393f95d2f1fa5ad5d04a9a0a86fd2ba06b3190f60804d68b8b604051610d079291906136cd565b60405180910390a450505050600160008190555050505050565b6000600160009054906101000a900473ffffffffffffffffffffffffffffffffffffffff16905090565b610d53612ab0565b6000600260008573ffffffffffffffffffffffffffffffffffffffff1673ffffffffffffffffffffffffffffffffffffffff168152602001908152602001600020600084815260200190815260200160002080549050905060008111610dee576040517f08c379a0000000000000000000000000000000000000000000000000000000008152600401610de590613742565b60405180910390fd5b600260008573ffffffffffffffffffffffffffffffffffffffff1673ffffffffffffffffffffffffffffffffffffffff1681526020019081526020016000206000848152602001908152602001600020600182610e4b9190613699565b81548110610e5c57610e5b61354f565b5b90600052602060002090600402016040518060a00160405290816000820154815260200160018201548152602001600282015481526020016003820160009054906101000a900473ffffffffffffffffffffffffffffffffffffffff1673ffffffffffffffffffffffffffffffffffffffff1673ffffffffffffffffffffffffffffffffffffffff1681526020016003820160149054906101000a900460ff16151515158152505091505092915050565b60026000541415610f53576040517f08c379a0000000000000000000000000000000000000000000000000000000008152600401610f4a90613347565b60405180910390fd5b6002600081905550610f6582826113e9565b610fa4576040517f08c379a0000000000000000000000000000000000000000000000000000000008152600401610f9b906137ae565b60405180910390fd5b6000600260008473ffffffffffffffffffffffffffffffffffffffff1673ffffffffffffffffffffffffffffffffffffffff1681526020019081526020016000206000838152602001908152602001600020805490509050600260008473ffffffffffffffffffffffffffffffffffffffff1673ffffffffffffffffffffffffffffffffffffffff16815260200190815260200160002060008381526020019081526020016000206001826110599190613699565b8154811061106a5761106961354f565b5b906000526020600020906004020160030160009054906101000a900473ffffffffffffffffffffffffffffffffffffffff1673ffffffffffffffffffffffffffffffffffffffff163373ffffffffffffffffffffffffffffffffffffffff1614611109576040517f08c379a00000000000000000000000000000000000000000000000000000000081526004016111009061381a565b60405180910390fd5b8273ffffffffffffffffffffffffffffffffffffffff166323b872dd3033856040518463ffffffff1660e01b815260040161114693929190613662565b600060405180830381600087803b15801561116057600080fd5b505af1158015611174573d6000803e3d6000fd5b50505050600260008473ffffffffffffffffffffffffffffffffffffffff1673ffffffffffffffffffffffffffffffffffffffff16815260200190815260200160002060008381526020019081526020016000206040518060a0016040528060008152602001428152602001848152602001600073ffffffffffffffffffffffffffffffffffffffff16815260200160001515815250908060018154018082558091505060019003906000526020600020906004020160009091909190915060008201518160000155602082015181600101556040820151816002015560608201518160030160006101000a81548173ffffffffffffffffffffffffffffffffffffffff021916908373ffffffffffffffffffffffffffffffffffffffff16021790555060808201518160030160146101000a81548160ff02191690831515021790555050503373ffffffffffffffffffffffffffffffffffffffff168373ffffffffffffffffffffffffffffffffffffffff16636352211e846040518263ffffffff1660e01b815260040161130a9190613236565b602060405180830381865afa158015611327573d6000803e3d6000fd5b505050506040513d601f19601f8201168201806040525081019061134b919061337c565b73ffffffffffffffffffffffffffffffffffffffff16146113a1576040517f08c379a0000000000000000000000000000000000000000000000000000000008152600401611398906138ac565b60405180910390fd5b7f846ceb40ac975ab55e4b44c3ae1aa38c4f245ef3984b13b3aa34b3e2f7c2e0388383426040516113d4939291906138cc565b60405180910390a15060016000819055505050565b600080600260008573ffffffffffffffffffffffffffffffffffffffff1673ffffffffffffffffffffffffffffffffffffffff168152602001908152602001600020600084815260200190815260200160002080549050905060008114156114555760009150506114dd565b6000600260008673ffffffffffffffffffffffffffffffffffffffff1673ffffffffffffffffffffffffffffffffffffffff16815260200190815260200160002060008581526020019081526020016000206001836114b49190613699565b815481106114c5576114c461354f565b5b90600052602060002090600402016000015414159150505b92915050565b60026000541415611529576040517f08c379a000000000000000000000000000000000000000000000000000000000815260040161152090613347565b60405180910390fd5b600260008190555061153b82826113e9565b61157a576040517f08c379a0000000000000000000000000000000000000000000000000000000008152600401611571906137ae565b60405180910390fd5b60006115868383611f04565b90506000600560008573ffffffffffffffffffffffffffffffffffffffff1673ffffffffffffffffffffffffffffffffffffffff168152602001908152602001600020600084815260200190815260200160002060009054906101000a900473ffffffffffffffffffffffffffffffffffffffff16905081341015611640576040517f08c379a000000000000000000000000000000000000000000000000000000000815260040161163790613975565b60405180910390fd5b8373ffffffffffffffffffffffffffffffffffffffff166323b872dd3033866040518463ffffffff1660e01b815260040161167d93929190613662565b600060405180830381600087803b15801561169757600080fd5b505af11580156116ab573d6000803e3d6000fd5b505050508073ffffffffffffffffffffffffffffffffffffffff166108fc839081150290604051600060405180830381858888f193505050501580156116f5573d6000803e3d6000fd5b5033600560008673ffffffffffffffffffffffffffffffffffffffff1673ffffffffffffffffffffffffffffffffffffffff168152602001908152602001600020600085815260200190815260200160002060006101000a81548173ffffffffffffffffffffffffffffffffffffffff021916908373ffffffffffffffffffffffffffffffffffffffff16021790555060006117918585610d4b565b905060018160800190151590811515815250506000600260008773ffffffffffffffffffffffffffffffffffffffff1673ffffffffffffffffffffffffffffffffffffffff168152602001908152602001600020600086815260200190815260200160002080549050905081600260008873ffffffffffffffffffffffffffffffffffffffff1673ffffffffffffffffffffffffffffffffffffffff168152602001908152602001600020600087815260200190815260200160002060018361185a9190613699565b8154811061186b5761186a61354f565b5b906000526020600020906004020160008201518160000155602082015181600101556040820151816002015560608201518160030160006101000a81548173ffffffffffffffffffffffffffffffffffffffff021916908373ffffffffffffffffffffffffffffffffffffffff16021790555060808201518160030160146101000a81548160ff021916908315150217905550905050600260008773ffffffffffffffffffffffffffffffffffffffff1673ffffffffffffffffffffffffffffffffffffffff16815260200190815260200160002060008681526020019081526020016000206040518060a0016040528060008152602001428152602001878152602001600073ffffffffffffffffffffffffffffffffffffffff16815260200160001515815250908060018154018082558091505060019003906000526020600020906004020160009091909190915060008201518160000155602082015181600101556040820151816002015560608201518160030160006101000a81548173ffffffffffffffffffffffffffffffffffffffff021916908373ffffffffffffffffffffffffffffffffffffffff16021790555060808201518160030160146101000a81548160ff0219169083151502179055505050833373ffffffffffffffffffffffffffffffffffffffff168473ffffffffffffffffffffffffffffffffffffffff167ffc8abc7914dcccec0a393f95d2f1fa5ad5d04a9a0a86fd2ba06b3190f60804d68989604051611aa39291906136cd565b60405180910390a45050505060016000819055505050565b60026000541415611b01576040517f08c379a0000000000000000000000000000000000000000000000000000000008152600401611af890613347565b60405180910390fd5b60026000819055506000611b158484612a56565b905060005b8180549050811015611d86573373ffffffffffffffffffffffffffffffffffffffff16828281548110611b5057611b4f61354f565b5b906000526020600020906003020160020160009054906101000a900473ffffffffffffffffffffffffffffffffffffffff1673ffffffffffffffffffffffffffffffffffffffff16148015611bc8575082828281548110611bb457611bb361354f565b5b906000526020600020906003020160000154145b8015611c09575060001515828281548110611be657611be561354f565b5b906000526020600020906003020160020160149054906101000a900460ff161515145b15611d73573373ffffffffffffffffffffffffffffffffffffffff166108fc849081150290604051600060405180830381858888f19350505050158015611c54573d6000803e3d6000fd5b5082600460003373ffffffffffffffffffffffffffffffffffffffff1673ffffffffffffffffffffffffffffffffffffffff1681526020019081526020016000206000828254611ca49190613699565b92505081905550818181548110611cbe57611cbd61354f565b5b906000526020600020906003020160008082016000905560018201600090556002820160006101000a81549073ffffffffffffffffffffffffffffffffffffffff02191690556002820160146101000a81549060ff0219169055505082848673ffffffffffffffffffffffffffffffffffffffff167f09465a66a63e315cf8a4518d9def0a1b10fecfbed1f328aa23b5911df7fb966e3342604051611d649291906136cd565b60405180910390a45050611dc2565b8080611d7e906135ad565b915050611b1a565b506040517f08c379a0000000000000000000000000000000000000000000000000000000008152600401611db990613642565b60405180910390fd5b6001600081905550505050565b6060600360008473ffffffffffffffffffffffffffffffffffffffff1673ffffffffffffffffffffffffffffffffffffffff1681526020019081526020016000206000838152602001908152602001600020805480602002602001604051908101604052809291908181526020016000905b82821015611ef8578382906000526020600020906003020160405180608001604052908160008201548152602001600182015481526020016002820160009054906101000a900473ffffffffffffffffffffffffffffffffffffffff1673ffffffffffffffffffffffffffffffffffffffff1673ffffffffffffffffffffffffffffffffffffffff1681526020016002820160149054906101000a900460ff16151515158152505081526020019060010190611e41565b50505050905092915050565b600080600260008573ffffffffffffffffffffffffffffffffffffffff1673ffffffffffffffffffffffffffffffffffffffff1681526020019081526020016000206000848152602001908152602001600020805490509050600260008573ffffffffffffffffffffffffffffffffffffffff1673ffffffffffffffffffffffffffffffffffffffff1681526020019081526020016000206000848152602001908152602001600020600182611fba9190613699565b81548110611fcb57611fca61354f565b5b90600052602060002090600402016000015491505092915050565b6002600054141561202c576040517f08c379a000000000000000000000000000000000000000000000000000000000815260040161202390613347565b60405180910390fd5b600260008190555061203e83836113e9565b15612127573373ffffffffffffffffffffffffffffffffffffffff16600560008573ffffffffffffffffffffffffffffffffffffffff1673ffffffffffffffffffffffffffffffffffffffff168152602001908152602001600020600084815260200190815260200160002060009054906101000a900473ffffffffffffffffffffffffffffffffffffffff1673ffffffffffffffffffffffffffffffffffffffff161415612122576040517f08c379a0000000000000000000000000000000000000000000000000000000008152600401612119906139e1565b60405180910390fd5b612210565b3373ffffffffffffffffffffffffffffffffffffffff168373ffffffffffffffffffffffffffffffffffffffff16636352211e846040518263ffffffff1660e01b81526004016121779190613236565b602060405180830381865afa158015612194573d6000803e3d6000fd5b505050506040513d601f19601f820116820180604052508101906121b8919061337c565b73ffffffffffffffffffffffffffffffffffffffff16141561220f576040517f08c379a0000000000000000000000000000000000000000000000000000000008152600401612206906139e1565b60405180910390fd5b5b60008111612253576040517f08c379a000000000000000000000000000000000000000000000000000000000815260040161224a90613a73565b60405180910390fd5b80341015612296576040517f08c379a000000000000000000000000000000000000000000000000000000000815260040161228d90613b05565b60405180910390fd5b600360008473ffffffffffffffffffffffffffffffffffffffff1673ffffffffffffffffffffffffffffffffffffffff168152602001908152602001600020600083815260200190815260200160002060405180608001604052808381526020014281526020013373ffffffffffffffffffffffffffffffffffffffff168152602001600015158152509080600181540180825580915050600190039060005260206000209060030201600090919091909150600082015181600001556020820151816001015560408201518160020160006101000a81548173ffffffffffffffffffffffffffffffffffffffff021916908373ffffffffffffffffffffffffffffffffffffffff16021790555060608201518160020160146101000a81548160ff021916908315150217905550505034600460003373ffffffffffffffffffffffffffffffffffffffff1673ffffffffffffffffffffffffffffffffffffffff16815260200190815260200160002060008282546124159190613b25565b9250508190555034828473ffffffffffffffffffffffffffffffffffffffff167f89bb030f992d23eb996063927c27dd49879a60bec67c8e5f33674b6ca7ccb3aa33426040516124669291906136cd565b60405180910390a46001600081905550505050565b612483612988565b73ffffffffffffffffffffffffffffffffffffffff166124a1610d21565b73ffffffffffffffffffffffffffffffffffffffff16146124f7576040517f08c379a00000000000000000000000000000000000000000000000000000000081526004016124ee906132db565b60405180910390fd5b600073ffffffffffffffffffffffffffffffffffffffff168173ffffffffffffffffffffffffffffffffffffffff161415612567576040517f08c379a000000000000000000000000000000000000000000000000000000000815260040161255e90613bed565b60405180910390fd5b61257081612990565b50565b600260005414156125b9576040517f08c379a00000000000000000000000000000000000000000000000000000000081526004016125b090613347565b60405180910390fd5b60026000819055508273ffffffffffffffffffffffffffffffffffffffff16636352211e836040518263ffffffff1660e01b81526004016125fa9190613236565b602060405180830381865afa158015612617573d6000803e3d6000fd5b505050506040513d601f19601f8201168201806040525081019061263b919061337c565b73ffffffffffffffffffffffffffffffffffffffff163373ffffffffffffffffffffffffffffffffffffffff16146126a8576040517f08c379a000000000000000000000000000000000000000000000000000000000815260040161269f90613c7f565b60405180910390fd5b600081116126eb576040517f08c379a00000000000000000000000000000000000000000000000000000000081526004016126e290613ceb565b60405180910390fd5b33600560008573ffffffffffffffffffffffffffffffffffffffff1673ffffffffffffffffffffffffffffffffffffffff168152602001908152602001600020600084815260200190815260200160002060006101000a81548173ffffffffffffffffffffffffffffffffffffffff021916908373ffffffffffffffffffffffffffffffffffffffff1602179055508273ffffffffffffffffffffffffffffffffffffffff166323b872dd3330856040518463ffffffff1660e01b81526004016127b793929190613662565b600060405180830381600087803b1580156127d157600080fd5b505af11580156127e5573d6000803e3d6000fd5b50505050600260008473ffffffffffffffffffffffffffffffffffffffff1673ffffffffffffffffffffffffffffffffffffffff16815260200190815260200160002060008381526020019081526020016000206040518060a001604052808381526020014281526020018481526020013373ffffffffffffffffffffffffffffffffffffffff16815260200160001515815250908060018154018082558091505060019003906000526020600020906004020160009091909190915060008201518160000155602082015181600101556040820151816002015560608201518160030160006101000a81548173ffffffffffffffffffffffffffffffffffffffff021916908373ffffffffffffffffffffffffffffffffffffffff16021790555060808201518160030160146101000a81548160ff021916908315150217905550505080828473ffffffffffffffffffffffffffffffffffffffff167f1037f9ad790f6be52c88905209eafa5191beee20d0e4ce88c5f4822fcd9d6d0233426040516129739291906136cd565b60405180910390a46001600081905550505050565b600033905090565b6000600160009054906101000a900473ffffffffffffffffffffffffffffffffffffffff16905081600160006101000a81548173ffffffffffffffffffffffffffffffffffffffff021916908373ffffffffffffffffffffffffffffffffffffffff1602179055508173ffffffffffffffffffffffffffffffffffffffff168173ffffffffffffffffffffffffffffffffffffffff167f8be0079c531659141344cd1fd0a4f28419497f9722a3daafe3b4186f6b6457e060405160405180910390a35050565b6000600360008473ffffffffffffffffffffffffffffffffffffffff1673ffffffffffffffffffffffffffffffffffffffff1681526020019081526020016000206000838152602001908152602001600020905092915050565b6040518060a00160405280600081526020016000815260200160008152602001600073ffffffffffffffffffffffffffffffffffffffff1681526020016000151581525090565b6000604051905090565b600080fd5b600080fd5b600073ffffffffffffffffffffffffffffffffffffffff82169050919050565b6000612b3682612b0b565b9050919050565b612b4681612b2b565b8114612b5157600080fd5b50565b600081359050612b6381612b3d565b92915050565b6000819050919050565b612b7c81612b69565b8114612b8757600080fd5b50565b600081359050612b9981612b73565b92915050565b600080fd5b600080fd5b6000601f19601f8301169050919050565b7f4e487b7100000000000000000000000000000000000000000000000000000000600052604160045260246000fd5b612bf282612ba9565b810181811067ffffffffffffffff82111715612c1157612c10612bba565b5b80604052505050565b6000612c24612af7565b9050612c308282612be9565b919050565b600067ffffffffffffffff821115612c5057612c4f612bba565b5b612c5982612ba9565b9050602081019050919050565b82818337600083830152505050565b6000612c88612c8384612c35565b612c1a565b905082815260208101848484011115612ca457612ca3612ba4565b5b612caf848285612c66565b509392505050565b600082601f830112612ccc57612ccb612b9f565b5b8135612cdc848260208601612c75565b91505092915050565b60008060008060808587031215612cff57612cfe612b01565b5b6000612d0d87828801612b54565b9450506020612d1e87828801612b54565b9350506040612d2f87828801612b8a565b925050606085013567ffffffffffffffff811115612d5057612d4f612b06565b5b612d5c87828801612cb7565b91505092959194509250565b60007fffffffff0000000000000000000000000000000000000000000000000000000082169050919050565b612d9d81612d68565b82525050565b6000602082019050612db86000830184612d94565b92915050565b60008060408385031215612dd557612dd4612b01565b5b6000612de385828601612b54565b9250506020612df485828601612b8a565b9150509250929050565b600081519050919050565b600082825260208201905092915050565b6000819050602082019050919050565b612e3381612b69565b82525050565b612e4281612b2b565b82525050565b60008115159050919050565b612e5d81612e48565b82525050565b60a082016000820151612e796000850182612e2a565b506020820151612e8c6020850182612e2a565b506040820151612e9f6040850182612e2a565b506060820151612eb26060850182612e39565b506080820151612ec56080850182612e54565b50505050565b6000612ed78383612e63565b60a08301905092915050565b6000602082019050919050565b6000612efb82612dfe565b612f058185612e09565b9350612f1083612e1a565b8060005b83811015612f41578151612f288882612ecb565b9750612f3383612ee3565b925050600181019050612f14565b5085935050505092915050565b60006020820190508181036000830152612f688184612ef0565b905092915050565b60008060008060808587031215612f8a57612f89612b01565b5b6000612f9887828801612b54565b9450506020612fa987828801612b8a565b9350506040612fba87828801612b8a565b9250506060612fcb87828801612b54565b91505092959194509250565b612fe081612b2b565b82525050565b6000602082019050612ffb6000830184612fd7565b92915050565b60a0820160008201516130176000850182612e2a565b50602082015161302a6020850182612e2a565b50604082015161303d6040850182612e2a565b5060608201516130506060850182612e39565b5060808201516130636080850182612e54565b50505050565b600060a08201905061307e6000830184613001565b92915050565b61308d81612e48565b82525050565b60006020820190506130a86000830184613084565b92915050565b6000806000606084860312156130c7576130c6612b01565b5b60006130d586828701612b54565b93505060206130e686828701612b8a565b92505060406130f786828701612b8a565b9150509250925092565b600081519050919050565b600082825260208201905092915050565b6000819050602082019050919050565b6080820160008201516131436000850182612e2a565b5060208201516131566020850182612e2a565b5060408201516131696040850182612e39565b50606082015161317c6060850182612e54565b50505050565b600061318e838361312d565b60808301905092915050565b6000602082019050919050565b60006131b282613101565b6131bc818561310c565b93506131c78361311d565b8060005b838110156131f85781516131df8882613182565b97506131ea8361319a565b9250506001810190506131cb565b5085935050505092915050565b6000602082019050818103600083015261321f81846131a7565b905092915050565b61323081612b69565b82525050565b600060208201905061324b6000830184613227565b92915050565b60006020828403121561326757613266612b01565b5b600061327584828501612b54565b91505092915050565b600082825260208201905092915050565b7f4f776e61626c653a2063616c6c6572206973206e6f7420746865206f776e6572600082015250565b60006132c560208361327e565b91506132d08261328f565b602082019050919050565b600060208201905081810360008301526132f4816132b8565b9050919050565b7f5265656e7472616e637947756172643a207265656e7472616e742063616c6c00600082015250565b6000613331601f8361327e565b915061333c826132fb565b602082019050919050565b6000602082019050818103600083015261336081613324565b9050919050565b60008151905061337681612b3d565b92915050565b60006020828403121561339257613391612b01565b5b60006133a084828501613367565b91505092915050565b7f4f6e6c7920746865206f776e6572206f66206120746f6b656e2063616e20616360008201527f63657074206f666665722e000000000000000000000000000000000000000000602082015250565b6000613405602b8361327e565b9150613410826133a9565b604082019050919050565b60006020820190508181036000830152613434816133f8565b9050919050565b60006040820190506134506000830185612fd7565b61345d6020830184612fd7565b9392505050565b61346d81612e48565b811461347857600080fd5b50565b60008151905061348a81613464565b92915050565b6000602082840312156134a6576134a5612b01565b5b60006134b48482850161347b565b91505092915050565b7f4d61726b6574706c616365206e6f7420617070726f76656420746f207472616e60008201527f736665722074686973204e46542e000000000000000000000000000000000000602082015250565b6000613519602e8361327e565b9150613524826134bd565b604082019050919050565b600060208201905081810360008301526135488161350c565b9050919050565b7f4e487b7100000000000000000000000000000000000000000000000000000000600052603260045260246000fd5b7f4e487b7100000000000000000000000000000000000000000000000000000000600052601160045260246000fd5b60006135b882612b69565b91507fffffffffffffffffffffffffffffffffffffffffffffffffffffffffffffffff8214156135eb576135ea61357e565b5b600182019050919050565b7f4e6f20627579206f6666657220666f756e640000000000000000000000000000600082015250565b600061362c60128361327e565b9150613637826135f6565b602082019050919050565b6000602082019050818103600083015261365b8161361f565b9050919050565b60006060820190506136776000830186612fd7565b6136846020830185612fd7565b6136916040830184613227565b949350505050565b60006136a482612b69565b91506136af83612b69565b9250828210156136c2576136c161357e565b5b828203905092915050565b60006040820190506136e26000830185612fd7565b6136ef6020830184613227565b9392505050565b7f4e6f2073656c6c206f6666657220666f72207468697320746f6b656e2e000000600082015250565b600061372c601d8361327e565b9150613737826136f6565b602082019050919050565b6000602082019050818103600083015261375b8161371f565b9050919050565b7f4e4654206973206e6f74206f6e2073616c650000000000000000000000000000600082015250565b600061379860128361327e565b91506137a382613762565b602082019050919050565b600060208201905081810360008301526137c78161378b565b9050919050565b7f4f6e6c792073656c6c65722063616e2063616e63656c206f6666657200000000600082015250565b6000613804601c8361327e565b915061380f826137ce565b602082019050919050565b60006020820190508181036000830152613833816137f7565b9050919050565b7f4e465420776173206e6f74207375636365737366756c6c79207472616e73666560008201527f727265642e000000000000000000000000000000000000000000000000000000602082015250565b600061389660258361327e565b91506138a18261383a565b604082019050919050565b600060208201905081810360008301526138c581613889565b9050919050565b60006060820190506138e16000830186612fd7565b6138ee6020830185613227565b6138fb6040830184613227565b949350505050565b7f536d616c6c657220616d6f756e74207468616e2072657175697265642068617360008201527f206265656e2073656e7400000000000000000000000000000000000000000000602082015250565b600061395f602a8361327e565b915061396a82613903565b604082019050919050565b6000602082019050818103600083015261398e81613952565b9050919050565b7f4f776e65722063616e277420626964206f6e206f776e204e4654000000000000600082015250565b60006139cb601a8361327e565b91506139d682613995565b602082019050919050565b600060208201905081810360008301526139fa816139be565b9050919050565b7f42696420616d6f756e74206d7573742062652067726561746572207468616e2060008201527f7a65726f00000000000000000000000000000000000000000000000000000000602082015250565b6000613a5d60248361327e565b9150613a6882613a01565b604082019050919050565b60006020820190508181036000830152613a8c81613a50565b9050919050565b7f42696420616d6f756e74206d7573742062652073656e7420746f20636f6e747260008201527f6163740000000000000000000000000000000000000000000000000000000000602082015250565b6000613aef60238361327e565b9150613afa82613a93565b604082019050919050565b60006020820190508181036000830152613b1e81613ae2565b9050919050565b6000613b3082612b69565b9150613b3b83612b69565b9250827fffffffffffffffffffffffffffffffffffffffffffffffffffffffffffffffff03821115613b7057613b6f61357e565b5b828201905092915050565b7f4f776e61626c653a206e6577206f776e657220697320746865207a65726f206160008201527f6464726573730000000000000000000000000000000000000000000000000000602082015250565b6000613bd760268361327e565b9150613be282613b7b565b604082019050919050565b60006020820190508181036000830152613c0681613bca565b9050919050565b7f4f6e6c7920746865206f776e6572206f66206120746f6b656e2063616e206c6960008201527f73742069742e0000000000000000000000000000000000000000000000000000602082015250565b6000613c6960268361327e565b9150613c7482613c0d565b604082019050919050565b60006020820190508181036000830152613c9881613c5c565b9050919050565b7f50726963652063616e2774206265207a65726f00000000000000000000000000600082015250565b6000613cd560138361327e565b9150613ce082613c9f565b602082019050919050565b60006020820190508181036000830152613d0481613cc8565b905091905056fea2646970667358221220049b307a3da0eb5a9fbed250567eba33670aa25c51a2331750bbb231d5cc761b64736f6c634300080b0033",
  "immutableReferences": {},
  "source": "// SPDX-License-Identifier: MIT\npragma solidity ^0.8.0;\n\nimport \"@openzeppelin/contracts/security/ReentrancyGuard.sol\";\nimport \"@openzeppelin/contracts/access/Ownable.sol\";\nimport \"@openzeppelin/contracts/token/ERC721/IERC721.sol\";\nimport \"@openzeppelin/contracts/token/ERC721/IERC721Receiver.sol\";\n\n\n\ncontract LOTM_MarketPlace is IERC721Receiver, ReentrancyGuard, Ownable {\n\n  event NewSellOffer(address indexed token, uint256 indexed id, uint256 indexed price, address seller, uint256 timestamp);\n  event SellOfferCanceled(address ca, uint256 id, uint256 timestamp);\n  event NewBuyOffer(address indexed token, uint256 indexed id, uint256 indexed bidAmount, address buyer, uint256 timestamp);\n  event BuyOfferCancelled(address indexed token, uint256 indexed id, uint256 indexed bidAmount, address buyer, uint256 timestamp);\n  event NFTPurchased(address indexed oldOwner, address indexed newOwner, uint256 indexed price, address collection, uint256 tokenId);\n\n  struct sellOffer {\n    uint256 price;\n    uint256 timestamp;\n    uint256 tokenId;\n    address seller;\n    bool accepted;\n  }\n\n  struct Offer {\n    uint256 bidAmount;\n    uint256 timestamp;\n    address buyer;\n    bool accepted;\n  }\n\n\n  mapping(address => mapping(uint256 => sellOffer[])) sellOffers;\n  mapping(address => mapping(uint256 => Offer[])) buyOffers;\n  mapping(address => uint256) bidAmounts;\n  mapping(address => mapping(uint256 => address)) currentOwner;\n\n  // Required in order to receive ERC 721's.\n  function onERC721Received(address, address, uint256, bytes memory) public virtual override returns (bytes4) {\n    return this.onERC721Received.selector;\n  }\n\n  // Required in order to receive MOVR\n  receive() external payable { }\n\n  // Create Sell Offer for your NFT\n  function createSellOffer(address ca, uint256 tokenId, uint256 price) public nonReentrant {\n    require(msg.sender == IERC721(ca).ownerOf(tokenId), \"Only the owner of a token can list it.\");\n    require(price > 0, \"Price can't be zero\");\n    currentOwner[ca][tokenId] = msg.sender;\n    IERC721(ca).transferFrom(msg.sender, address(this), tokenId); // transfer NFT to marketplace\n    sellOffers[ca][tokenId].push(sellOffer(price, block.timestamp, tokenId, msg.sender, false));\n    emit NewSellOffer(ca, tokenId, price, msg.sender, block.timestamp);\n  }\n\n  // Cancel your Sell Offer\n  function cancelSellOffer(address ca, uint256 tokenId) public nonReentrant {\n    require(isOnSale(ca,tokenId), \"NFT is not on sale\");\n    uint256 index = sellOffers[ca][tokenId].length;\n    require(msg.sender == sellOffers[ca][tokenId][index - 1].seller, \"Only seller can cancel offer\");\n    IERC721(ca).transferFrom(address(this), msg.sender, tokenId); // transfer NFT to seller\n    sellOffers[ca][tokenId].push(sellOffer(0, block.timestamp, tokenId, address(0), false));\n\n    require(IERC721(ca).ownerOf(tokenId) == msg.sender, \"NFT was not successfully transferred.\");\n    emit SellOfferCanceled(ca, tokenId, block.timestamp);\n  }\n\n\n  function purchaseNFT(address ca, uint256 tokenId) public payable nonReentrant{\n    require(isOnSale(ca,tokenId), \"NFT is not on sale\");\n    uint256 price = getNFTPrice(ca,tokenId);\n    address _oldOwner = currentOwner[ca][tokenId];\n    require(msg.value >= price , \"Smaller amount than required has been sent\");\n    IERC721(ca).transferFrom(address(this), msg.sender, tokenId); // transfer NFT to buyer\n    payable(_oldOwner).transfer(price); // send funds to seller\n    // update current owner\n    currentOwner[ca][tokenId] = msg.sender;\n    // update accepted value\n    sellOffer memory lastOffer = getLastSellOffer(ca,tokenId);\n    lastOffer.accepted = true;\n    uint256 index = sellOffers[ca][tokenId].length;\n    sellOffers[ca][tokenId][index-1] = lastOffer;\n    sellOffers[ca][tokenId].push(sellOffer(0, block.timestamp, tokenId, address(0), false));\n    emit NFTPurchased(_oldOwner, msg.sender, price, ca, tokenId);\n  }\n\n  function createBuyOffer(address ca, uint256 tokenId, uint256 bidAmount) public payable nonReentrant{\n    if(isOnSale(ca,tokenId)){\n      require(currentOwner[ca][tokenId] != msg.sender, \"Owner can't bid on own NFT\");\n    }\n    else{\n      require(IERC721(ca).ownerOf(tokenId) != msg.sender, \"Owner can't bid on own NFT\");\n    }\n    require(bidAmount > 0 , \"Bid amount must be greater than zero\");\n    require(msg.value >= bidAmount, \"Bid amount must be sent to contract\");\n    buyOffers[ca][tokenId].push(Offer(bidAmount, block.timestamp, msg.sender, false));\n    bidAmounts[msg.sender] += msg.value;\n    emit NewBuyOffer(ca, tokenId, msg.value, msg.sender, block.timestamp);\n  }\n\n  function cancelBuyOffer(address ca, uint256 tokenId, uint256 bidAmount) public payable nonReentrant{\n    Offer[] storage _buyOffers = _getBuyOffers(ca,tokenId);\n    for (uint i = 0; i < _buyOffers.length; i++){\n      if(_buyOffers[i].buyer == msg.sender\n       && _buyOffers[i].bidAmount == bidAmount\n       && _buyOffers[i].accepted == false){\n        payable(msg.sender).transfer(bidAmount);\n        bidAmounts[msg.sender] -= bidAmount;\n        delete(_buyOffers[i]);\n        emit BuyOfferCancelled(ca, tokenId, bidAmount, msg.sender, block.timestamp);\n        return;\n      }\n    }\n    revert(\"No buy offer found\");\n  }\n\n  function acceptBuyOffer(address ca, uint256 tokenId, uint256 bidAmount, address buyer) public payable nonReentrant{\n    require(msg.sender == IERC721(ca).ownerOf(tokenId), \"Only the owner of a token can accept offer.\");\n    bool _isOnSale = isOnSale(ca,tokenId);\n    if(!_isOnSale){\n      require(IERC721(ca).isApprovedForAll(msg.sender, address(this)), \"Marketplace not approved to transfer this NFT.\");\n    }\n    Offer[] storage _buyOffers = _getBuyOffers(ca,tokenId);\n    bool flag = false;\n    uint256 index = 0;\n    for (uint i = 0; i < _buyOffers.length; i++){\n      if(_buyOffers[i].bidAmount == bidAmount\n        && _buyOffers[i].buyer == buyer\n        && _buyOffers[i].accepted == false\n      )\n      {\n        flag = true;\n        index = i;\n        break;\n      }\n    }\n    require(flag == true, \"No buy offer found\");\n    // need to check if NFT is on sale\n\n    // if it's not, NFT should be transfered directly from msg.sender\n    if(!_isOnSale){\n      IERC721(ca).transferFrom(msg.sender,buyer,tokenId);\n    }\n    // otherwise, NFT should be transfered from contract\n    else{\n      IERC721(ca).transferFrom(address(this), buyer, tokenId);\n      sellOffers[ca][tokenId].push(sellOffer(0, block.timestamp, tokenId, address(0), false));\n    }\n    payable(msg.sender).transfer(bidAmount);\n    bidAmounts[buyer] -= bidAmount;\n    currentOwner[ca][tokenId] = buyer;\n    delete(_buyOffers[index]);\n    emit NFTPurchased(msg.sender, buyer, bidAmount, ca, tokenId);\n  }\n\n\n\n\n  // Helper Functions\n\n  // Get Last Sell Offer\n  function getLastSellOffer(address ca, uint256 tokenId) public view returns (sellOffer memory){\n    uint256 index = sellOffers[ca][tokenId].length;\n    require(index > 0, 'No sell offer for this token.');\n    return sellOffers[ca][tokenId][index-1];\n  }\n\n  // Check if NFT is on sale\n  function isOnSale(address ca, uint256 tokenId) public view returns (bool) {\n    uint256 index = sellOffers[ca][tokenId].length;\n    if (index == 0) {\n      return false;\n    }\n    return sellOffers[ca][tokenId][index - 1].price != 0;\n  }\n\n  // Get NFT price\n  function getNFTPrice(address ca , uint256 tokenId) public view returns(uint256) {\n    uint256 index = sellOffers[ca][tokenId].length;\n    return sellOffers[ca][tokenId][index - 1].price;\n  }\n\n  // Get Buy Offers internal (storage vs memory)\n  function _getBuyOffers(address ca, uint256 tokenId) internal view returns (Offer[] storage) {\n    return buyOffers[ca][tokenId];\n  }\n\n  // Get Buy Offers external\n  function getBuyOffers(address ca, uint256 tokenId) public view returns (Offer[] memory) {\n    return buyOffers[ca][tokenId];\n  }\n  // Get Sell Offers\n  function getSellOffers(address ca, uint256 tokenId) public view returns (sellOffer[] memory) {\n    return sellOffers[ca][tokenId];\n  }\n\n\n}",
  "sourcePath": "/home/vani/Desktop/LordsOfTheMoon/contracts/LOTM_MarketPlace.sol",
  "compiler": {
    "name": "solc",
    "version": "0.8.11+commit.d7f03943.Emscripten.clang"
  },
  "schemaVersion": "3.4.4",
  "updatedAt": "2022-03-05T15:27:07.646Z",
  "networkType": "ethereum",
  "devdoc": {
    "kind": "dev",
    "methods": {
      "owner()": {
        "details": "Returns the address of the current owner."
      },
      "renounceOwnership()": {
        "details": "Leaves the contract without owner. It will not be possible to call `onlyOwner` functions anymore. Can only be called by the current owner. NOTE: Renouncing ownership will leave the contract without an owner, thereby removing any functionality that is only available to the owner."
      },
      "transferOwnership(address)": {
        "details": "Transfers ownership of the contract to a new account (`newOwner`). Can only be called by the current owner."
      }
    },
    "version": 1
  },
  "userdoc": {
    "kind": "user",
    "methods": {},
    "version": 1
  }
}